:020000040000FA
:0400000062EF1DF09E
:10060000003F065B4F666D7D077F6F777C395E79B3
:1006100071630000AAEC1DF00DEC1DF09BEC1BF0CB
:10062000B4EC1DF0010E5CEC1BF0800E5CEC1BF0DA
:100630002D0E38EC1DF02D0E38EC1DF02D0E38EC83
:100640001DF02D0E38EC1DF02D0E38EC1DF02D0E8A
:1006500038EC1DF02D0E38EC1DF02D0E38EC1DF091
:100660002D0E38EC1DF02D0E38EC1DF02D0E38EC53
:100670001DF02D0E38EC1DF02D0E38EC1DF02D0E5A
:1006800038EC1DF02D0E38EC1DF02D0E38EC1DF061
:10069000C40E5CEC1BF04B0E38EC1DF0520E38EC27
:1006A0001DF0490E38EC1DF0530E38EC1DF0540EC1
:1006B00038EC1DF0410E38EC1DF04C0E38EC1DF0FE
:1006C0004C0E38EC1DF0A80E5CEC1BF0000E38EC64
:1006D0001DF0000E38EC1DF0000E38EC1DF0570E2A
:1006E00038EC1DF0450E38EC1DF0490E38EC1DF0CD
:1006F000530E38EC1DF0530E38EC1DF0420E38EC62
:100700001DF0490E38EC1DF0450E38EC1DF0520E70
:1007100038EC1DF0D00E5CEC1BF02D0E38EC1DF00B
:100720002D0E38EC1DF02D0E38EC1DF02D0E38EC92
:100730001DF02D0E38EC1DF02D0E38EC1DF02D0E99
:1007400038EC1DF02D0E38EC1DF02D0E38EC1DF0A0
:100750002D0E38EC1DF02D0E38EC1DF02D0E38EC62
:100760001DF02D0E38EC1DF02D0E38EC1DF02D0E69
:1007700038EC1DF02D0E38EC1DF0070E1B6ED00E60
:100780001A6EAFEC1CF0010E5CEC1BF0830E5CECFF
:100790001BF02D0E38EC1DF0430E38EC1DF0520E00
:1007A00038EC1DF0450E38EC1DF0440E38EC1DF011
:1007B000490E38EC1DF0540E38EC1DF04F0E38EC9D
:1007C0001DF0530E38EC1DF02D0E38EC1DF0C00E50
:1007D0005CEC1BF0430E38EC1DF0450E38EC1DF0C0
:1007E000520E38EC1DF0560E38EC1DF0450E38EC6C
:1007F0001DF04A0E38EC1DF0410E38EC1DF0520E83
:1008000038EC1DF0490E38EC1DF0410E38EC1DF0AF
:10081000000E38EC1DF0430E38EC1DF0520E38EC93
:100820001DF0550E38EC1DF04C0E38EC1DF0530E3B
:1008300038EC1DF0090E1B6EC40E1A6EAFEC1CF0E6
:10084000010E5CEC1BF0830E5CEC1BF02D0E38EC03
:100850001DF0520E38EC1DF0450E38EC1DF0430E25
:1008600038EC1DF0450E38EC1DF0490E38EC1DF04B
:10087000540E38EC1DF0410E38EC1DF02D0E38EC06
:100880001DF0C00E5CEC1BF02D0E38EC1DF0000EC0
:1008900038EC1DF0560E38EC1DF04F0E38EC1DF004
:1008A0004C0E38EC1DF0550E38EC1DF04D0E38ECAA
:1008B0001DF0450E38EC1DF03A0E38EC1DF0000E20
:1008C00038EC1DF0320E38EC1DF0300E38EC1DF017
:1008D0004C0E38EC1DF0A80E5CEC1BF02D0E38EC25
:1008E0001DF0000E38EC1DF0410E38EC1DF0420EEC
:1008F00038EC1DF0560E38EC1DF03A0E38EC1DF0B9
:10090000000E38EC1DF0350E38EC1DF0250E38ECDD
:100910001DF0D00E5CEC1BF02D0E38EC1DF0000E1F
:1009200038EC1DF0490E38EC1DF0420E38EC1DF08D
:10093000550E38EC1DF03A0E38EC1DF0000E38EC78
:100940001DF0310E38EC1DF0300E38EC1DF00B0EA2
:100950001B6EB80E1A6EAFEC1CF0010E5CEC1BF0B7
:10096000830E5CEC1BF02D0E38EC1DF04D0E38ECB8
:100970001DF0410E38EC1DF04C0E38EC1DF0540EFD
:1009800038EC1DF0450E38EC1DF0000E38EC1DF073
:10099000310E38EC1DF02D0E38EC1DF0C00E5CEC65
:1009A0001BF0500E38EC1DF0490E38EC1DF04C0ECB
:1009B00038EC1DF0530E38EC1DF0450E38EC1DF0F0
:1009C0004E0E38EC1DF0000E38EC1DF0490E38ECE0
:1009D0001DF04D0E38EC1DF0500E38EC1DF04F0E92
:1009E00038EC1DF0520E38EC1DF0540E38EC1DF0B2
:1009F000410E38EC1DF0440E38EC1DF04F0E38EC73
:100A00001DF0A80E5CEC1BF02D0E38EC1DF0000E56
:100A100038EC1DF0320E38EC1DF02C0E38EC1DF0C9
:100A2000330E38EC1DF0310E38EC1DF04B0E38EC67
:100A30001DF0470E38EC1DF0D00E5CEC1BF02D0EB7
:100A400038EC1DF0000E38EC1DF0350E38EC1DF0C2
:100A5000300E38EC1DF0250E38EC1DF0090E1B6E23
:100A6000C40E1A6EAFEC1CF0010E5CEC1BF0830E92
:100A70005CEC1BF02D0E38EC1DF04D0E38EC1DF02B
:100A8000410E38EC1DF04C0E38EC1DF0540E38ECD5
:100A90001DF0450E38EC1DF0000E38EC1DF0320E46
:100AA00038EC1DF02D0E38EC1DF0C00E5CEC1BF088
:100AB000540E38EC1DF0520E38EC1DF0490E38EC97
:100AC0001DF0470E38EC1DF04F0E38EC1DF0A80E4F
:100AD0005CEC1BF02D0E38EC1DF0000E38EC1DF018
:100AE000320E38EC1DF02C0E38EC1DF0310E38ECC7
:100AF0001DF0340E38EC1DF04B0E38EC1DF0470E97
:100B000038EC1DF0D00E5CEC1BF02D0E38EC1DF017
:100B1000000E38EC1DF0340E38EC1DF0370E38ECBA
:100B20001DF0250E38EC1DF0090E1B6EC40E1A6E5A
:100B3000AFEC1CF0010E5CEC1BF0830E5CEC1BF0C8
:100B40002D0E38EC1DF04D0E38EC1DF0410E38EC3A
:100B50001DF04C0E38EC1DF0540E38EC1DF0450E17
:100B600038EC1DF0000E38EC1DF0330E38EC1DF0A3
:100B70002D0E38EC1DF0C00E5CEC1BF04D0E38EC69
:100B80001DF0450E38EC1DF04C0E38EC1DF0410EFA
:100B900038EC1DF04E0E38EC1DF04F0E38EC1DF009
:100BA000A80E5CEC1BF02D0E38EC1DF0000E38EC9E
:100BB0001DF0310E38EC1DF0340E38EC1DF0300E07
:100BC00038EC1DF0470E38EC1DF0D00E5CEC1BF03D
:100BD0002D0E38EC1DF0000E38EC1DF0330E38EC05
:100BE0001DF0250E38EC1DF0090E1B6EC40E1A6E9A
:100BF000AFEC1CF0010E5CEC1BF0830E5CEC1BF008
:100C00002D0E38EC1DF04C0E38EC1DF0550E38EC66
:100C10001DF0500E38EC1DF0550E38EC1DF04C0E4A
:100C200038EC1DF04F0E38EC1DF0000E38EC1DF0C6
:100C3000310E38EC1DF02D0E38EC1DF0C00E5CECC2
:100C40001BF04D0E38EC1DF0410E38EC1DF0470E38
:100C500038EC1DF04E0E38EC1DF0550E38EC1DF042
:100C60004D0E38EC1DF0A80E5CEC1BF02D0E38EC90
:100C70001DF0000E38EC1DF0390E38EC1DF02C0E76
:100C800038EC1DF0350E38EC1DF0470E38EC1DF039
:100C9000090E1B6EC40E1A6EAFEC1CF0010E5CEC5C
:100CA0001BF0830E5CEC1BF02D0E38EC1DF04C0E8F
:100CB00038EC1DF0550E38EC1DF0500E38EC1DF0E0
:100CC000550E38EC1DF04C0E38EC1DF04F0E38EC84
:100CD0001DF0000E38EC1DF0320E38EC1DF02D0E1C
:100CE00038EC1DF0C00E5CEC1BF0530E38EC1DF020
:100CF000410E38EC1DF0410E38EC1DF05A0E38EC68
:100D00001DF0A80E5CEC1BF02D0E38EC1DF0000E53
:100D100038EC1DF0330E38EC1DF02C0E38EC1DF0C5
:100D2000320E38EC1DF0470E38EC1DF00B0E1B6E2A
:100D3000B80E1A6EAFEC1CF0010E5CEC1BF0800ECE
:100D40005CEC1BF0450E38EC1DF0530E38EC1DF03A
:100D5000510E38EC1DF0550E38EC1DF0450E38ECF8
:100D60001DF04E0E38EC1DF0540E38EC1DF0410E07
:100D700038EC1DF04E0E38EC1DF0440E38EC1DF032
:100D8000300E38EC1DF02E0E38EC1DF02E0E38EC27
:100D90001DF02E0E38EC1DF03CEF0BF0000E1B6E1C
:100DA000010E1A6EAFEC1CF0074A082A030E266EDD
:100DB000100EE1EC1CF0020E266E000E1D6E640E8D
:100DC0001C6E07C01AF008C01BF0D7EC1BF01AC04D
:100DD00021F01BC022F0000E246E0A0E236E7DEC63
:100DE0001CF02150E1EC1CF0010E266E030E1D6E6E
:100DF000E80E1C6E07C01AF008C01BF0D7EC1BF001
:100E00001AC021F01BC022F0000E246E0A0E236EC1
:100E10007DEC1CF02150E1EC1CF01BEC1AF035507D
:100E2000075C36500858D8A018EF07F01AEF07F003
:100E30003CEF0BF0010E2A6E3CEF0BF0054A062A40
:100E400035C007F036C008F005040610D8A42BEF13
:100E500007F02DEF07F006EF0AF0320E11EC1CF050
:100E6000000E1B6E640E1A6EAFEC1CF0000E11EC3F
:100E70001CF0CD0E355C100E3658D8B042EF07F09E
:100E800044EF07F08CEF07F0010E5CEC1BF0800ED6
:100E90005CEC1BF0490E38EC1DF04E0E38EC1DF0EA
:100EA000530E38EC1DF0490E38EC1DF0520E38ECA4
:100EB0001DF0410E38EC1DF0000E38EC1DF04F0E09
:100EC00038EC1DF0530E38EC1DF0000E38EC1DF020
:100ED0004D0E38EC1DF0410E38EC1DF04C0E38EC88
:100EE0001DF0540E38EC1DF0450E38EC1DF0530E7D
:100EF00038EC1DF0DB0E5CEC1BF04F0E38EC1DF0F7
:100F00004B0E38EC1DF0280E38EC1DF0230E38EC9B
:100F10001DF0290E38EC1DF0CF0E355C100E365842
:100F2000D8B095EF07F097EF07F0C4EF07F0CD0EBC
:100F3000355C100E3658D8A0A0EF07F0A2EF07F0EE
:100F4000C4EF07F0010E5CEC1BF0800E5CEC1BF0B4
:100F5000440E38EC1DF0450E38EC1DF0470E38EC11
:100F60001DF0520E38EC1DF0410E38EC1DF0550E00
:100F700038EC1DF0000E38EC1DF0300E38EC1DF092
:100F8000100E366ECE0E356E790E355C1E0E36584E
:100F9000D8B0CDEF07F0CFEF07F0F9EF07F0CF0EA5
:100FA000355C100E3658D8A0D8EF07F0DAEF07F00E
:100FB000F9EF07F0010E5CEC1BF0800E5CEC1BF00F
:100FC000440E38EC1DF0450E38EC1DF0470E38ECA1
:100FD0001DF0520E38EC1DF0410E38EC1DF0550E90
:100FE00038EC1DF0000E38EC1DF03350300F38ECAB
:100FF0001DF0050E33183410D8A401EF08F003EFEC
:1010000008F072EF08F0AD0E355C260E3658D8B0F9
:101010000CEF08F00EEF08F072EF08F0010E5CEC38
:101020001BF0850E5CEC1BF0460E38EC1DF0450EF7
:1010300038EC1DF0520E38EC1DF0560E38EC1DF059
:10104000550E38EC1DF0520E38EC1DF0410E38EC08
:101050001DF0C00E5CEC1BF0490E38EC1DF04E0E7E
:1010600038EC1DF0530E38EC1DF0490E38EC1DF035
:10107000520E38EC1DF0410E38EC1DF0000E38EC2D
:101080001DF04C0E38EC1DF0550E38EC1DF0500ED6
:1010900038EC1DF0550E38EC1DF04C0E38EC1DF000
:1010A000300E38EC1DF0000E38EC1DF0310E38EC2F
:1010B0001DF0DB0E5CEC1BF04F0E38EC1DF04B0E00
:1010C00038EC1DF0280E38EC1DF0230E38EC1DF026
:1010D000290E38EC1DF0000E47EC1CF0000E346EAB
:1010E000090E336E060E33183410D8B47AEF08F0B8
:1010F0007CEF08F086EF08F0080E33183410D8A4FF
:1011000084EF08F086EF08F08DEF09F0010E5CEC3B
:101110001BF0800E5CEC1BF0460E38EC1DF0450E0B
:1011200038EC1DF0520E38EC1DF0560E38EC1DF068
:10113000550E38EC1DF0520E38EC1DF0410E38EC17
:101140001DF0080E33183410D8A4A9EF08F0ABEF47
:1011500008F08DEF09F0010E5CEC1BF0C00E5CECAA
:101160001BF02D0E38EC1DF02D0E38EC1DF02D0E61
:1011700038EC1DF02D0E38EC1DF02D0E38EC1DF066
:101180002D0E38EC1DF02D0E38EC1DF02D0E38EC28
:101190001DF02D0E38EC1DF02D0E38EC1DF02D0E2F
:1011A00038EC1DF02D0E38EC1DF02D0E38EC1DF036
:1011B0002D0E38EC1DF02D0E38EC1DF02D0E38ECF8
:1011C0001DF0A80E5CEC1BF0460E38EC1DF0490E2D
:1011D00038EC1DF04D0E38EC1DF0000E38EC1DF013
:1011E000440E38EC1DF0410E38EC1DF0000E38ECCA
:1011F0001DF0420E38EC1DF0520E38EC1DF0410E81
:1012000038EC1DF0530E38EC1DF0530E38EC1DF089
:10121000410E38EC1DF0470E38EC1DF0450E38EC51
:101220001DF04D0E38EC1DF0D00E5CEC1BF02D0EB9
:1012300038EC1DF02D0E38EC1DF02D0E38EC1DF0A5
:101240002D0E38EC1DF02D0E38EC1DF02D0E38EC67
:101250001DF02D0E38EC1DF02D0E38EC1DF02D0E6E
:1012600038EC1DF02D0E38EC1DF02D0E38EC1DF075
:101270002D0E38EC1DF02D0E38EC1DF02D0E38EC37
:101280001DF02D0E38EC1DF02D0E38EC1DF0090E62
:10129000366EC40E356E320E11EC1CF0000E1B6E55
:1012A000320E1A6EAFEC1CF0000E11EC1CF0000EAA
:1012B0001B6EC80E1A6EAFEC1CF0320E11EC1CF057
:1012C000000E1B6E320E1A6EAFEC1CF0000E11EC0D
:1012D0001CF0000E1B6EC80E1A6EAFEC1CF0320E26
:1012E00011EC1CF0000E1B6E320E1A6EAFEC1CF0EF
:1012F000000E11EC1CF0000E1B6EC80E1A6EAFEC47
:101300001CF0320E11EC1CF0000E1B6E320E1A6E29
:10131000AFEC1CF0000E11EC1CF0070E331834106B
:10132000D8A495EF09F097EF09F006EF0AF0AD0E9B
:10133000355C260E3658D8B0A0EF09F0A2EF09F0C0
:1013400006EF0AF0010E5CEC1BF0850E5CEC1BF066
:10135000460E38EC1DF0450E38EC1DF0520E38EC00
:101360001DF0560E38EC1DF0550E38EC1DF0520EE7
:1013700038EC1DF0410E38EC1DF0C00E5CEC1BF09B
:10138000490E38EC1DF04E0E38EC1DF0530E38ECC3
:101390001DF0490E38EC1DF0520E38EC1DF0410ED8
:1013A00038EC1DF0000E38EC1DF04C0E38EC1DF042
:1013B000550E38EC1DF0500E38EC1DF0550E38EC83
:1013C0001DF04C0E38EC1DF0300E38EC1DF0000E08
:1013D00038EC1DF0320E38EC1DF0DB0E5CEC1BF02F
:1013E0004F0E38EC1DF04B0E38EC1DF0280E38EC8B
:1013F0001DF0230E38EC1DF0290E38EC1DF0000E08
:1014000047EC1CF0000E346E0A0E336E83EC17F0BE
:101410005EEC19F0020E2A6E3CEF0BF0CD0E355C3F
:10142000100E3658D8A017EF0AF019EF0AF03AEF6D
:101430000BF0345007E1090E335CD8B022EF0AF00C
:1014400024EF0AF03AEF0BF0C00E5CEC1BF0030E39
:101450001D6EE80E1C6E03C01AF004C01BF0D7EC22
:101460001BF01AC021F01BC022F0000E246E0A0EE1
:10147000236E7DEC1CF02150300F38EC1DF0000E77
:101480001D6E640E1C6E03C01AF004C01BF0D7EC76
:101490001BF01AC021F01BC022F0000E246E0A0EB1
:1014A000236E7DEC1CF02150300F38EC1DF0000E47
:1014B00038EC1DF06D0E38EC1DF0690E38EC1DF0A7
:1014C0006E0E38EC1DF003500410D8B46AEF0AF029
:1014D0006CEF0AF0E9EF0AF00306D8A004063AEF31
:1014E0000BF0070E046ED00E036E3AEF0BF0140EE5
:1014F000366E500E356E000E066E000E056E000E36
:10150000346E010E336E050E046EDC0E036E3AEF80
:101510000BF0190E366E640E356E000E066E000E60
:10152000056E000E346E020E336E0F0E046EA00EAA
:10153000036E3AEF0BF01C0E366E200E356E000E69
:10154000066E000E056E000E346E030E336E070E2F
:10155000046ED00E036E3AEF0BF01E0E366E780E50
:10156000356E000E066E000E056E000E346E040E13
:10157000336E030E046EE80E036E3AEF0BF0260E88
:10158000366EAC0E356E000E066E000E056E000E49
:10159000346E050E336E040E046E4C0E036E3AEF7D
:1015A0000BF0000E066E000E056E000E346E070E78
:1015B000336E030E046EE80E036E3AEF0BF0000E6E
:1015C000066E000E056E000E346E080E336E3AEF96
:1015D0000BF035C028F036C029F02950100AD8B4D5
:1015E00008EF0BF0040AD8B413EF0BF00D0AD8B4CF
:1015F0001AEF0BF0050AD8B421EF0BF0020AD8B4A9
:1016000028EF0BF0380AD8B42FEF0BF03AEF0BF0BD
:101610002850CD0AD8B471EF0AF0030AD8B477EF96
:101620000AF03AEF0BF02850500AD8B489EF0AF0CC
:101630003AEF0BF02850640AD8B49BEF0AF03AEF67
:101640000BF02850200AD8B4ADEF0AF03AEF0BF0B7
:101650002850780AD8B4BFEF0AF03AEF0BF02850C0
:10166000AC0AD8B4D1EF0AF0010AD8B4DFEF0AF01F
:101670003AEF0BF0000E2A6E2A50286E296A295084
:10168000000AD8B446EF0BF03AEF0BF02850000AEE
:10169000D8B4CEEF06F0010AD8B41EEF07F0030A63
:1016A000D8B40EEF0AF03AEF0BF01200AAEC1DF0DE
:1016B0000DEC1DF09BEC1BF0B4EC1DF0010E5CEC8E
:1016C0001BF0800E5CEC1BF02D0E38EC1DF02D0E87
:1016D00038EC1DF02D0E38EC1DF02D0E38EC1DF001
:1016E0002D0E38EC1DF02D0E38EC1DF02D0E38ECC3
:1016F0001DF02D0E38EC1DF02D0E38EC1DF02D0ECA
:1017000038EC1DF02D0E38EC1DF02D0E38EC1DF0D0
:101710002D0E38EC1DF02D0E38EC1DF02D0E38EC92
:101720001DF02D0E38EC1DF0C50E5CEC1BF0410ECB
:1017300038EC1DF04D0E38EC1DF0420E38EC1DF06B
:10174000450E38EC1DF0520E38EC1DF0AD0E5CEC81
:101750001BF04C0E38EC1DF0410E38EC1DF0470E1E
:1017600038EC1DF0450E38EC1DF0520E38EC1DF033
:10177000D00E5CEC1BF02D0E38EC1DF02D0E38EC6D
:101780001DF02D0E38EC1DF02D0E38EC1DF02D0E39
:1017900038EC1DF02D0E38EC1DF02D0E38EC1DF040
:1017A0002D0E38EC1DF02D0E38EC1DF02D0E38EC02
:1017B0001DF02D0E38EC1DF02D0E38EC1DF02D0E09
:1017C00038EC1DF02D0E38EC1DF02D0E38EC1DF010
:1017D0002D0E38EC1DF0070E1B6ED00E1A6EAFECFE
:1017E0001CF0010E5CEC1BF0830E5CEC1BF02D0E6C
:1017F00038EC1DF0430E38EC1DF0520E38EC1DF0A5
:10180000450E38EC1DF0440E38EC1DF0490E38EC56
:101810001DF0540E38EC1DF04F0E38EC1DF0530E39
:1018200038EC1DF02D0E38EC1DF0C00E5CEC1BF0FA
:10183000430E38EC1DF0410E38EC1DF04E0E38EC26
:101840001DF0410E38EC1DF04C0E38EC1DF0000E72
:1018500038EC1DF0440E38EC1DF04F0E38EC1DF046
:10186000000E38EC1DF0430E38EC1DF0480E38EC3D
:101870001DF04F0E38EC1DF0500E38EC1DF0500EE0
:1018800038EC1DF0090E1B6EC40E1A6EAFEC1CF086
:10189000010E5CEC1BF0830E5CEC1BF02D0E38ECA3
:1018A0001DF0520E38EC1DF0450E38EC1DF0430EC5
:1018B00038EC1DF0450E38EC1DF0490E38EC1DF0EB
:1018C000540E38EC1DF0410E38EC1DF02D0E38ECA6
:1018D0001DF0C00E5CEC1BF02D0E38EC1DF0000E60
:1018E00038EC1DF0560E38EC1DF04F0E38EC1DF0A4
:1018F0004C0E38EC1DF0550E38EC1DF04D0E38EC4A
:101900001DF0450E38EC1DF03A0E38EC1DF0000EBF
:1019100038EC1DF0320E38EC1DF0300E38EC1DF0B6
:101920004C0E38EC1DF0A80E5CEC1BF02D0E38ECC4
:101930001DF0000E38EC1DF0410E38EC1DF0420E8B
:1019400038EC1DF0560E38EC1DF03A0E38EC1DF058
:10195000000E38EC1DF0340E38EC1DF02C0E38EC77
:101960001DF0350E38EC1DF0250E38EC1DF0D00EB4
:101970005CEC1BF02D0E38EC1DF0000E38EC1DF069
:10198000490E38EC1DF0420E38EC1DF0550E38ECC7
:101990001DF03A0E38EC1DF0000E38EC1DF0310E43
:1019A00038EC1DF0360E38EC1DF00B0E1B6EB80E29
:1019B0001A6EAFEC1CF0010E5CEC1BF0830E5CECBD
:1019C0001BF02D0E38EC1DF04D0E38EC1DF0410EC5
:1019D00038EC1DF04C0E38EC1DF0540E38EC1DF0B8
:1019E000450E38EC1DF0000E38EC1DF0310E38ECD1
:1019F0001DF02D0E38EC1DF0C00E5CEC1BF0500EEF
:101A000038EC1DF0490E38EC1DF04C0E38EC1DF092
:101A1000530E38EC1DF0450E38EC1DF04E0E38EC30
:101A20001DF0000E38EC1DF04E0E38EC1DF0410E8E
:101A300038EC1DF0430E38EC1DF0490E38EC1DF06B
:101A40004F0E38EC1DF04E0E38EC1DF0410E38EC08
:101A50001DF04C0E38EC1DF0A80E5CEC1BF02D0EAA
:101A600038EC1DF0000E38EC1DF0330E38EC1DF094
:101A70002C0E38EC1DF0350E38EC1DF04B0E38EC0A
:101A80001DF0470E38EC1DF0D00E5CEC1BF02D0E57
:101A900038EC1DF0000E38EC1DF0370E38EC1DF060
:101AA000310E38EC1DF0250E38EC1DF0090E1B6EC2
:101AB000C40E1A6EAFEC1CF0010E5CEC1BF0830E32
:101AC0005CEC1BF02D0E38EC1DF04D0E38EC1DF0CB
:101AD000410E38EC1DF04C0E38EC1DF0540E38EC75
:101AE0001DF0450E38EC1DF0000E38EC1DF0320EE6
:101AF00038EC1DF02D0E38EC1DF0C00E5CEC1BF028
:101B00004D0E38EC1DF0450E38EC1DF04C0E38EC47
:101B10001DF0410E38EC1DF04E0E38EC1DF04F0E4E
:101B200038EC1DF0490E38EC1DF0440E38EC1DF079
:101B3000490E38EC1DF04E0E38EC1DF0410E38EC1D
:101B40001DF0A80E5CEC1BF02D0E38EC1DF0000E05
:101B500038EC1DF0360E38EC1DF0300E38EC1DF070
:101B6000300E38EC1DF0470E38EC1DF0D00E5CEC5A
:101B70001BF02D0E38EC1DF0000E38EC1DF0310E70
:101B800038EC1DF0320E38EC1DF0250E38EC1DF04F
:101B9000090E1B6EC40E1A6EAFEC1CF0010E5CEC4D
:101BA0001BF0830E5CEC1BF02D0E38EC1DF04D0E7F
:101BB00038EC1DF0410E38EC1DF04C0E38EC1DF0E9
:101BC000540E38EC1DF0450E38EC1DF0000E38ECCC
:101BD0001DF0330E38EC1DF02D0E38EC1DF0C00E4C
:101BE0005CEC1BF0430E38EC1DF0410E38EC1DF0A0
:101BF000520E38EC1DF0410E38EC1DF0520E38EC50
:101C00001DF0450E38EC1DF0440E38EC1DF0A80E0A
:101C10005CEC1BF02D0E38EC1DF0000E38EC1DF0C6
:101C2000340E38EC1DF0300E38EC1DF0300E38EC70
:101C30001DF0470E38EC1DF0D00E5CEC1BF02D0EA5
:101C400038EC1DF0000E38EC1DF0380E38EC1DF0AD
:101C5000250E38EC1DF0090E1B6EC40E1A6EAFEC8B
:101C60001CF0010E5CEC1BF0830E5CEC1BF02D0EE7
:101C700038EC1DF04D0E38EC1DF0410E38EC1DF027
:101C80004C0E38EC1DF0540E38EC1DF0450E38ECBF
:101C90001DF0000E38EC1DF0340E38EC1DF02D0E4A
:101CA00038EC1DF0C00E5CEC1BF0430E38EC1DF060
:101CB000410E38EC1DF0520E38EC1DF0410E38ECA0
:101CC0001DF0500E38EC1DF0490E38EC1DF04C0E96
:101CD00038EC1DF0530E38EC1DF0A80E5CEC1BF038
:101CE0002D0E38EC1DF0000E38EC1DF0320E38ECE5
:101CF0001DF0330E38EC1DF0300E38EC1DF0470EA1
:101D000038EC1DF0D00E5CEC1BF02D0E38EC1DF005
:101D1000000E38EC1DF0350E38EC1DF0250E38ECB9
:101D20001DF0090E1B6EC40E1A6EAFEC1CF0010EF6
:101D30005CEC1BF0830E5CEC1BF02D0E38EC1DF000
:101D40004D0E38EC1DF0410E38EC1DF04C0E38EC09
:101D50001DF0540E38EC1DF0450E38EC1DF0000E51
:101D600038EC1DF0350E38EC1DF02D0E38EC1DF062
:101D7000C00E5CEC1BF0430E38EC1DF0410E38EC4D
:101D80001DF0520E38EC1DF0410E38EC1DF0410EE6
:101D900038EC1DF04D0E38EC1DF0420E38EC1DF005
:101DA000450E38EC1DF0520E38EC1DF0A80E5CEC20
:101DB0001BF02D0E38EC1DF0000E38EC1DF0320E2D
:101DC00038EC1DF0300E38EC1DF0300E38EC1DF004
:101DD000470E38EC1DF0D00E5CEC1BF02D0E38ECED
:101DE0001DF0000E38EC1DF0340E38EC1DF0250E01
:101DF00038EC1DF0090E1B6EC40E1A6EAFEC1CF011
:101E0000010E5CEC1BF0830E5CEC1BF02D0E38EC2D
:101E10001DF04C0E38EC1DF0550E38EC1DF0500E38
:101E200038EC1DF0550E38EC1DF04C0E38EC1DF062
:101E30004F0E38EC1DF0000E38EC1DF0310E38EC72
:101E40001DF02D0E38EC1DF0C00E5CEC1BF04D0E9D
:101E500038EC1DF0410E38EC1DF0470E38EC1DF04B
:101E60004E0E38EC1DF0550E38EC1DF04D0E38ECD2
:101E70001DF0A80E5CEC1BF02D0E38EC1DF0000ED2
:101E800038EC1DF0310E38EC1DF0320E38EC1DF040
:101E9000470E38EC1DF00B0E1B6EB80E1A6EAFEC31
:101EA0001CF0010E5CEC1BF0800E5CEC1BF0450E90
:101EB00038EC1DF0530E38EC1DF0510E38EC1DF0CF
:101EC000550E38EC1DF0450E38EC1DF04E0E38EC7A
:101ED0001DF0540E38EC1DF0410E38EC1DF04E0E86
:101EE00038EC1DF0440E38EC1DF0300E38EC1DF0CF
:101EF0002E0E38EC1DF02E0E38EC1DF02E0E38ECA8
:101F00001DF054EF13F0000E1B6E010E1A6EAFECB5
:101F10001CF0014A022A030E266E100EE1EC1CF0A2
:101F2000020E266E000E1D6E640E1C6E01C01AF0AD
:101F300002C01BF0D7EC1BF01AC021F01BC022F02E
:101F4000000E246E0A0E236E7DEC1CF02150E1EC95
:101F50001CF0010E266E030E1D6EE80E1C6E01C0F5
:101F60001AF002C01BF0D7EC1BF01AC021F01BC006
:101F700022F0000E246E0A0E236E7DEC1CF0215020
:101F8000E1EC1CF01BEC1AF03150015C32500258AD
:101F9000D8A0CDEF0FF0CFEF0FF054EF13F0010EFC
:101FA0002A6E54EF13F0054A062A31C001F032C000
:101FB00002F005040610D8A4E0EF0FF0E2EF0FF0F6
:101FC00075EF12F0320E11EC1CF0000E1B6E640E59
:101FD0001A6EAFEC1CF0000E11EC1CF02D0E315CF3
:101FE0001A0E3258D8B0F7EF0FF0F9EF0FF041EFBB
:101FF00010F0010E5CEC1BF0800E5CEC1BF0490E47
:1020000038EC1DF04E0E38EC1DF0530E38EC1DF080
:10201000490E38EC1DF0520E38EC1DF0410E38EC34
:102020001DF0000E38EC1DF04F0E38EC1DF0530E75
:1020300038EC1DF0000E38EC1DF04D0E38EC1DF0A4
:10204000410E38EC1DF04C0E38EC1DF0540E38ECFF
:102050001DF0450E38EC1DF0530E38EC1DF0DB0E74
:102060005CEC1BF04F0E38EC1DF04B0E38EC1DF005
:10207000280E38EC1DF0230E38EC1DF0290E38EC3C
:102080001DF02F0E315C1A0E3258D8B04AEF10F006
:102090004CEF10F079EF10F02D0E315C1A0E325823
:1020A000D8A055EF10F057EF10F079EF10F0010EB7
:1020B0005CEC1BF0800E5CEC1BF0440E38EC1DF069
:1020C000450E38EC1DF0470E38EC1DF0520E38EC82
:1020D0001DF0410E38EC1DF0550E38EC1DF0000ED1
:1020E00038EC1DF0300E38EC1DF01A0E326E2E0E4C
:1020F000316EB10E315C1D0E3258D8B082EF10F047
:1021000084EF10F0AEEF10F02F0E315C1A0E325843
:10211000D8A08DEF10F08FEF10F0AEEF10F0010EA1
:102120005CEC1BF0800E5CEC1BF0440E38EC1DF0F8
:10213000450E38EC1DF0470E38EC1DF0520E38EC11
:102140001DF0410E38EC1DF0550E38EC1DF0000E60
:1021500038EC1DF03350300F38EC1DF0050E3318FD
:102160003410D8A4B6EF10F0B8EF10F0E1EF10F093
:10217000AD0E315C260E3258D8B0C1EF10F0C3EF6F
:1021800010F0E1EF10F0010E5CEC1BF0800E5CEC47
:102190001BF0460E38EC1DF0450E38EC1DF0520ECB
:1021A00038EC1DF0560E38EC1DF0550E38EC1DF0D5
:1021B000520E38EC1DF0410E38EC1DF0000E47ECCD
:1021C0001CF0060E33183410D8B4E9EF10F0EBEF22
:1021D00010F0F5EF10F0080E33183410D8A4F3EF18
:1021E00010F0F5EF10F0FCEF11F0010E5CEC1BF0BD
:1021F000800E5CEC1BF0460E38EC1DF0450E38EC02
:102200001DF0520E38EC1DF0560E38EC1DF0550E38
:1022100038EC1DF0520E38EC1DF0410E38EC1DF07C
:10222000080E33183410D8A418EF11F01AEF11F07B
:10223000FCEF11F0010E5CEC1BF0C00E5CEC1BF02F
:102240002D0E38EC1DF02D0E38EC1DF02D0E38EC57
:102250001DF02D0E38EC1DF02D0E38EC1DF02D0E5E
:1022600038EC1DF02D0E38EC1DF02D0E38EC1DF065
:102270002D0E38EC1DF02D0E38EC1DF02D0E38EC27
:102280001DF02D0E38EC1DF02D0E38EC1DF02D0E2E
:1022900038EC1DF02D0E38EC1DF02D0E38EC1DF035
:1022A000A80E5CEC1BF0460E38EC1DF0490E38EC25
:1022B0001DF04D0E38EC1DF0000E38EC1DF0440EF4
:1022C00038EC1DF0410E38EC1DF0000E38EC1DF01E
:1022D000420E38EC1DF0520E38EC1DF0410E38EC79
:1022E0001DF0530E38EC1DF0530E38EC1DF0410E6E
:1022F00038EC1DF0470E38EC1DF0450E38EC1DF0A3
:102300004D0E38EC1DF0D00E5CEC1BF02D0E38ECB1
:102310001DF02D0E38EC1DF02D0E38EC1DF02D0E9D
:1023200038EC1DF02D0E38EC1DF02D0E38EC1DF0A4
:102330002D0E38EC1DF02D0E38EC1DF02D0E38EC66
:102340001DF02D0E38EC1DF02D0E38EC1DF02D0E6D
:1023500038EC1DF02D0E38EC1DF02D0E38EC1DF074
:102360002D0E38EC1DF02D0E38EC1DF0090E326EDE
:10237000C40E316E320E11EC1CF0000E1B6E320ECC
:102380001A6EAFEC1CF0000E11EC1CF0000E1B6E70
:10239000C80E1A6EAFEC1CF0320E11EC1CF0000EE1
:1023A0001B6E320E1A6EAFEC1CF0000E11EC1CF01E
:1023B000000E1B6EC80E1A6EAFEC1CF0320E11EC44
:1023C0001CF0000E1B6E320E1A6EAFEC1CF0000EED
:1023D00011EC1CF0000E1B6EC80E1A6EAFEC1CF058
:1023E000320E11EC1CF0000E1B6E320E1A6EAFECAA
:1023F0001CF0000E11EC1CF0070E33183410D8A49A
:1024000004EF12F006EF12F075EF12F0AD0E315C32
:10241000260E3258D8B00FEF12F011EF12F075EF10
:1024200012F0010E5CEC1BF0850E5CEC1BF0460E0E
:1024300038EC1DF0450E38EC1DF0520E38EC1DF056
:10244000560E38EC1DF0550E38EC1DF0520E38ECDF
:102450001DF0410E38EC1DF0C00E5CEC1BF0490E77
:1024600038EC1DF04E0E38EC1DF0530E38EC1DF01C
:10247000490E38EC1DF0520E38EC1DF0410E38ECD0
:102480001DF0000E38EC1DF04C0E38EC1DF0550E12
:1024900038EC1DF0500E38EC1DF0550E38EC1DF0E8
:1024A0004C0E38EC1DF0300E38EC1DF0000E38EC00
:1024B0001DF0310E38EC1DF0DB0E5CEC1BF04F0E06
:1024C00038EC1DF04B0E38EC1DF0280E38EC1DF0EA
:1024D000230E38EC1DF0290E38EC1DF0000E47ECF1
:1024E0001CF0000E346E0A0E336E99EC18F05EECA0
:1024F00019F0020E2A6E54EF13F02D0E315C1A0EF5
:102500003258D8A086EF12F088EF12F052EF13F095
:10251000345007E1090E335CD8B091EF12F093EF1D
:1025200012F052EF13F0C00E5CEC1BF0030E1D6EA8
:10253000E80E1C6E03C01AF004C01BF0D7EC1BF0B1
:102540001AC021F01BC022F0000E246E0A0E236E6A
:102550007DEC1CF02150300F38EC1DF0000E1D6E8C
:10256000640E1C6E03C01AF004C01BF0D7EC1BF005
:102570001AC021F01BC022F0000E246E0A0E236E3A
:102580007DEC1CF02150300F38EC1DF0000E38ECC3
:102590001DF06D0E38EC1DF0690E38EC1DF06E0E5E
:1025A00038EC1DF003500410D8B4D9EF12F0DBEF73
:1025B00012F022EF13F00306D8A0040652EF13F036
:1025C0001D0E046E4C0E036E52EF13F01D0E326E94
:1025D000B00E316E000E066E000E056E000E346EEB
:1025E000010E336E030E046EE80E036E52EF13F00D
:1025F000260E326EAC0E316E000E066E000E056EAB
:10260000000E346E050E336E030E046EE80E036E7C
:1026100052EF13F0000E066E000E056E000E346EC3
:10262000070E336E130E046E880E036E52EF13F016
:10263000000E066E000E056E000E346E080E336E30
:1026400052EF13F031C028F032C029F029501A0A95
:10265000D8B435EF13F0070AD8B440EF13F03B0AB3
:10266000D8B447EF13F052EF13F028502D0AD8B426
:10267000E0EF12F0030AD8B4E6EF12F052EF13F0D5
:102680002850B00AD8B4F8EF12F052EF13F02850E7
:10269000AC0AD8B40AEF13F0010AD8B418EF13F05B
:1026A00052EF13F0000E2A6E2A50286E296A295024
:1026B000000AD8B45EEF13F052EF13F02850000A6E
:1026C000D8B483EF0FF0010AD8B4D3EF0FF0030AA8
:1026D000D8B47DEF12F052EF13F012009BEC1BF018
:1026E000B4EC1DF0010E5CEC1BF0C00E5CEC1BF0BA
:1026F0002D0E38EC1DF02D0E38EC1DF02D0E38ECA3
:102700001DF02D0E38EC1DF02D0E38EC1DF02D0EA9
:1027100038EC1DF02D0E38EC1DF02D0E38EC1DF0B0
:102720002D0E38EC1DF02D0E38EC1DF02D0E38EC72
:102730001DF02D0E38EC1DF02D0E38EC1DF02D0E79
:1027400038EC1DF02D0E38EC1DF02D0E38EC1DF080
:10275000A80E5CEC1BF04D0E38EC1DF0490E38EC69
:102760001DF0430E38EC1DF0520E38EC1DF04F0EEC
:1027700038EC1DF0430E38EC1DF0450E38EC1DF022
:10278000520E38EC1DF0560E38EC1DF0450E38ECAC
:102790001DF04A0E38EC1DF0410E38EC1DF0520EC3
:1027A00038EC1DF0490E38EC1DF0410E38EC1DF0F0
:1027B000D00E5CEC1BF02D0E38EC1DF02D0E38EC1D
:1027C0001DF02D0E38EC1DF02D0E38EC1DF02D0EE9
:1027D00038EC1DF02D0E38EC1DF02D0E38EC1DF0F0
:1027E0002D0E38EC1DF02D0E38EC1DF02D0E38ECB2
:1027F0001DF02D0E38EC1DF02D0E38EC1DF02D0EB9
:1028000038EC1DF02D0E38EC1DF02D0E38EC1DF0BF
:102810002D0E38EC1DF0070E1B6ED00E1A6EAFECAD
:102820001CF01EEF15F00F501010D8A41AEF14F082
:102830001CEF14F0AAEF14F0010E5CEC1BF0830EF9
:102840005CEC1BF02D0E38EC1DF0520E38EC1DF038
:10285000450E38EC1DF0430E38EC1DF0450E38ECFB
:102860001DF0490E38EC1DF0540E38EC1DF0410EF1
:1028700038EC1DF0530E38EC1DF02D0E38EC1DF029
:10288000C00E5CEC1BF0310E38EC1DF0000E38EC85
:102890001DF0410E38EC1DF04D0E38EC1DF0420ECF
:1028A00038EC1DF0450E38EC1DF0520E38EC1DF0E2
:1028B000000E38EC1DF04C0E38EC1DF0410E38ECDB
:1028C0001DF0470E38EC1DF0450E38EC1DF0520E91
:1028D00038EC1DF0A80E5CEC1BF0320E38EC1DF04D
:1028E000000E38EC1DF04B0E38EC1DF02E0E38ECBF
:1028F0001DF0000E38EC1DF0570E38EC1DF0450EA3
:1029000038EC1DF0490E38EC1DF0530E38EC1DF07C
:10291000530E38EC1DF0420E38EC1DF0490E38EC29
:102920001DF0450E38EC1DF0520E38EC1DF0DC0E9B
:102930005CEC1BF0280E38EC1DF0230E38EC1DF07B
:10294000290E38EC1DF07E0E38EC1DF0000E106ED6
:102950000A0E0F6EC3EC1AF05EEC19F01EEF15F0C4
:102960000F041010D8A4B7EF14F0B9EF14F0AAEFC9
:1029700014F0010E5CEC1BF0800E5CEC1BF0450EBD
:1029800038EC1DF0530E38EC1DF0430E38EC1DF002
:102990004F0E38EC1DF04C0E38EC1DF0480E38ECA4
:1029A0001DF0410E38EC1DF0000E38EC1DF0520EFB
:1029B00038EC1DF0450E38EC1DF0430E38EC1DF0E0
:1029C000450E38EC1DF0490E38EC1DF0540E38EC75
:1029D0001DF0410E38EC1DF03A0E38EC1DF0C40E1F
:1029E0005CEC1BF0280E38EC1DF0310E38EC1DF0BD
:1029F000290E38EC1DF0C80E5CEC1BF0280E38ECEC
:102A00001DF0320E38EC1DF0290E38EC1DF0D00E02
:102A10005CEC1BF07F0E38EC1DF0280E38EC1DF03E
:102A20002A0E38EC1DF0290E38EC1DF0000E106E49
:102A3000020E0F6EAAEF14F0000E196E19502F6ED1
:102A4000306A3050000AD8B428EF15F01CEF15F0AA
:102A50002F50000AD8B413EF14F0010AD8B4B0EF25
:102A600014F01CEF15F000EF00F01BBE43EF15F063
:102A70001B5007E1080E1A5CD8B041EF15F043EF88
:102A800015F06DEF15F01C501D10D8B44AEF15F07D
:102A90004CEF15F05CEF15F01AC01EF0010E1F6E22
:102AA0001E2A55EF15F0D8901F361E2E53EF15F045
:102AB0001F5092125BEF16F01AC01EF0010E1F6E2F
:102AC0001E2A65EF15F0D8901F361E2E63EF15F005
:102AD0001F50FF0A92165BEF16F01BBE7BEF15F03E
:102AE0001B5007E1100E1A5CD8B079EF15F07BEFA0
:102AF00015F0A9EF15F01C501D10D8B482EF15F099
:102B000084EF15F096EF15F01AC01EF0F80E1E2691
:102B1000010E1F6E1E2A8FEF15F0D8901F361E2E45
:102B20008DEF15F01F5093125BEF16F01AC01EF0D8
:102B3000F80E1E26010E1F6E1E2AA1EF15F0D8906A
:102B40001F361E2E9FEF15F01F50FF0A93165BEFE6
:102B500016F01BBEB7EF15F01B5007E1180E1A5CFC
:102B6000D8B0B5EF15F0B7EF15F0E5EF15F01C5044
:102B70001D10D8B4BEEF15F0C0EF15F0D2EF15F070
:102B80001AC01EF0F00E1E26010E1F6E1E2ACBEF7D
:102B900015F0D8901F361E2EC9EF15F01F50941255
:102BA0005BEF16F01AC01EF0F00E1E26010E1F6E0F
:102BB0001E2ADDEF15F0D8901F361E2EDBEF15F024
:102BC0001F50FF0A94165BEF16F01BBEF3EF15F0D3
:102BD0001B5007E1200E1A5CD8B0F1EF15F0F3EFAF
:102BE00015F021EF16F01C501D10D8B4FAEF15F0B7
:102BF000FCEF15F00EEF16F01AC01EF0E80E1E26C0
:102C0000010E1F6E1E2A07EF16F0D8901F361E2EDB
:102C100005EF16F01F5095125BEF16F01AC01EF06C
:102C2000E80E1E26010E1F6E1E2A19EF16F0D89010
:102C30001F361E2E17EF16F01F50FF0A95165BEF7A
:102C400016F01BBE2FEF16F01B5007E1280E1A5C82
:102C5000D8B02DEF16F02FEF16F05BEF16F01C50EA
:102C60001D10D8B436EF16F038EF16F04AEF16F014
:102C70001AC01EF0E00E1E26010E1F6E1E2A43EF24
:102C800016F0D8901F361E2E41EF16F01F509612E8
:102C90005BEF16F01AC01EF0E00E1E26010E1F6E2E
:102CA0001E2A55EF16F0D8901F361E2E53EF16F041
:102CB0001F50FF0A961612001BBE6AEF16F01B503B
:102CC00007E1080E1A5CD8B068EF16F06AEF16F04C
:102CD00094EF16F01C501D10D8B471EF16F073EF7E
:102CE00016F083EF16F01AC01EF0010E1F6E1E2A9A
:102CF0007CEF16F0D8901F361E2E7AEF16F01F507C
:102D0000801282EF17F01AC01EF0010E1F6E1E2AED
:102D10008CEF16F0D8901F361E2E8AEF16F01F503B
:102D2000FF0A801682EF17F01BBEA2EF16F01B50B1
:102D300007E1100E1A5CD8B0A0EF16F0A2EF16F063
:102D4000D0EF16F0F80E1A26FF0E1B221C501D1095
:102D5000D8B4ADEF16F0AFEF16F0BFEF16F01AC013
:102D60001EF0010E1F6E1E2AB8EF16F0D8901F3607
:102D70001E2EB6EF16F01F50811282EF17F01AC008
:102D80001EF0010E1F6E1E2AC8EF16F0D8901F36D7
:102D90001E2EC6EF16F01F50FF0A811682EF17F0A5
:102DA0001BBEDEEF16F01B5007E1180E1A5CD8B000
:102DB000DCEF16F0DEEF16F00CEF17F0F00E1A262F
:102DC000FF0E1B221C501D10D8B4E9EF16F0EBEFDC
:102DD00016F0FBEF16F01AC01EF0010E1F6E1E2A31
:102DE000F4EF16F0D8901F361E2EF2EF16F01F509B
:102DF000821282EF17F01AC01EF0010E1F6E1E2AFB
:102E000004EF17F0D8901F361E2E02EF17F01F5058
:102E1000FF0A821682EF17F01BBE1AEF17F01B5045
:102E200007E1200E1A5CD8B018EF17F01AEF17F070
:102E300048EF17F0E80E1A26FF0E1B221C501D103B
:102E4000D8B425EF17F027EF17F037EF17F01AC0B7
:102E50001EF0010E1F6E1E2A30EF17F0D8901F369D
:102E60001E2E2EEF17F01F50831282EF17F01AC09C
:102E70001EF0010E1F6E1E2A40EF17F0D8901F366D
:102E80001E2E3EEF17F01F50FF0A831682EF17F039
:102E90001BBE56EF17F01B5007E1280E1A5CD8B086
:102EA00054EF17F056EF17F082EF17F0E00E1A26E6
:102EB000FF0E1B221C501D10D8B461EF17F063EFFA
:102EC00017F073EF17F01AC01EF0010E1F6E1E2AC6
:102ED0006CEF17F0D8901F361E2E6AEF17F01F50B8
:102EE000841282EF17F01AC01EF0010E1F6E1E2A08
:102EF0007CEF17F0D8901F361E2E7AEF17F01F5078
:102F0000FF0A84161200800E5CEC1BF0B9EC1DF079
:102F100026501A1809E127501B18D8B492EF17F061
:102F200094EF17F096EF17F0B9EC1DF0B9EC1DF027
:102F30001BA09DEF17F09FEF17F0F2EF17F0CD0EEB
:102F4000355C100E3658D8B0A8EF17F0AAEF17F07E
:102F5000F2EF17F0010E5CEC1BF04D0E38EC1DF09B
:102F6000410E38EC1DF04C0E38EC1DF0540E38ECD0
:102F70001DF0450E38EC1DF0530E38EC1DF0000E20
:102F800038EC1DF0490E38EC1DF04E0E38EC1DF0FB
:102F9000530E38EC1DF0450E38EC1DF0520E38EC97
:102FA0001DF0490E38EC1DF0440E38EC1DF04F0EAC
:102FB00038EC1DF0530E38EC1DF0320E47EC1CF0CF
:102FC000100E366ECD0E356E100E086ECD0E076EDD
:102FD000000E066E000E056E020E1B6E260E1A6E99
:102FE000AFEC1CF0090E33183410D8A4FAEF17F028
:102FF000FCEF17F043EF18F0B9EC1DF01BA003EF46
:1030000018F005EF18F043EF18F0010E5CEC1BF020
:103010004C0E38EC1DF0550E38EC1DF0500E38EC0F
:103020001DF0550E38EC1DF04C0E38EC1DF04F0E17
:1030300038EC1DF0000E38EC1DF0490E38EC1DF098
:103040004E0E38EC1DF0530E38EC1DF0450E38ECEA
:103050001DF0520E38EC1DF0490E38EC1DF0440EF8
:1030600038EC1DF04F0E38EC1DF0000E066E000E11
:10307000056E000E346E060E336E020E1B6E260EAB
:103080001A6EAFEC1CF00A0E33183410D8A44BEFB4
:1030900018F04DEF18F098EF18F0B9EC1DF01BA0E8
:1030A00054EF18F056EF18F098EF18F0010E5CECA2
:1030B0001BF04C0E38EC1DF0550E38EC1DF0500E88
:1030C00038EC1DF0550E38EC1DF04C0E38EC1DF0B0
:1030D0004F0E38EC1DF0000E38EC1DF0490E38ECA8
:1030E0001DF04E0E38EC1DF0530E38EC1DF0450E61
:1030F00038EC1DF0520E38EC1DF0490E38EC1DF086
:10310000440E38EC1DF04F0E38EC1DF0000E066E2C
:10311000000E056E000E346E060E336E260E366EF1
:10312000AD0E356E020E1B6E260E1A6EAFEC1CF045
:103130001200800E5CEC1BF0B9EC1DF026501A1842
:1031400009E127501B18D8B4A8EF18F0AAEF18F01F
:10315000ACEF18F0B9EC1DF0B9EC1DF01BA0B3EF0B
:1031600018F0B5EF18F008EF19F02D0E315C1A0EBB
:103170003258D8B0BEEF18F0C0EF18F008EF19F0D1
:10318000010E5CEC1BF04D0E38EC1DF0410E38ECDE
:103190001DF04C0E38EC1DF0540E38EC1DF0450EB1
:1031A00038EC1DF0530E38EC1DF0000E38EC1DF01D
:1031B000490E38EC1DF04E0E38EC1DF0530E38EC75
:1031C0001DF0450E38EC1DF0520E38EC1DF0490E86
:1031D00038EC1DF0440E38EC1DF04F0E38EC1DF0AD
:1031E000530E38EC1DF0320E47EC1CF01A0E326E06
:1031F0002D0E316E1A0E026E2D0E016E000E066E31
:10320000000E056E020E1B6E260E1A6EAFEC1CF041
:103210000A0E33183410D8A410EF19F012EF19F079
:103220005DEF19F0B9EC1DF01BA019EF19F01BEFC1
:1032300019F05DEF19F0010E5CEC1BF04C0E38EC50
:103240001DF0550E38EC1DF0500E38EC1DF0550EEB
:1032500038EC1DF04C0E38EC1DF04F0E38EC1DF024
:10326000000E38EC1DF0490E38EC1DF04E0E38EC17
:103270001DF0530E38EC1DF0450E38EC1DF0520ECB
:1032800038EC1DF0490E38EC1DF0440E38EC1DF002
:103290004F0E38EC1DF0000E066E000E056E000E8F
:1032A000346E060E336E260E326EAD0E316E020E89
:1032B0001B6E260E1A6EAFEC1CF0120083CF1FF0AF
:1032C0000F0E9512000E236EF80E931623C01AF0FF
:1032D000010E1B6E1A2A6FEF19F0D8901B361A2EAA
:1032E0006DEF19F01B509312070E811223C01AF0D4
:1032F000010E1B6E1A2A7FEF19F0D8901B361A2E7A
:103300007DEF19F01B50FF0A8116000E216E000E92
:10331000206E204A212A21BE97EF19F0215009E1A1
:103320000A0E205CD8A097EF19F099EF19F089EFF9
:1033300019F0000E226E22C01AF0010E1B6E1A2A1E
:10334000A4EF19F0D8901B361A2EA2EF19F01B50DB
:1033500083140009D8A4AFEF19F0B1EF19F0C9EF49
:1033600019F02350040DF35022241A6E010E1B6E27
:10337000000E1C6E1A2AC0EF19F0D8901B361C36AE
:103380001A2EBDEF19F01B500B121C500C12E3EF5C
:1033900019F02350040DF35022241A6E010E1B6EF7
:1033A000000E1C6E1A2AD8EF19F0D8901B361C3666
:1033B0001A2ED5EF19F01B1C1D6E1C1C1E6E1D5005
:1033C0000B161E500C16222A030E2264EAEF19F087
:1033D000ECEF19F09BEF19F0232A020E2364F3EFB0
:1033E00019F0F5EF19F064EF19F00B50091807E127
:1033F0000C500A18D8A4FFEF19F001EF1AF004EFEF
:103400001AF018060AEF1AF00A0E186E0BC009F02F
:103410000CC00AF01850D8A410EF1AF012EF1AF0EE
:1034200016EF1AF009C00DF00AC00EF01FC083FF9E
:10343000000E956E1200000E956E000E1B6E020EB1
:103440001A6E000E1D6E000E1C6E5CEC16F0000E67
:103450001B6E030E1A6E000E1D6E000E1C6E5CECD1
:1034600016F0000E1B6E040E1A6E000E1D6E000E7E
:103470001C6E5CEC16F0000E1B6E050E1A6E000E34
:103480001D6E000E1C6E5CEC16F0000E836EA5EF38
:103490001AF0010E1624F66EF76A060EF7220800DF
:1034A000F5CF83FF000E1B6E020E1A6E000E1D6E0E
:1034B000010E1C6E5CEC16F0010E176EC2EF1AF0D6
:1034C000010E1524F66EF76A060EF7220800F5CFF6
:1034D00083FF000E1B6E030E1A6E000E1D6E010E92
:1034E0001C6E5CEC16F0020E176EC2EF1AF0010EA5
:1034F0001424F66EF76A060EF7220800F5CF83FF54
:10350000000E1B6E040E1A6E000E1D6E010E1C6E58
:103510005CEC16F0030E176EC2EF1AF0010E1324C6
:10352000F66EF76A060EF7220800F5CF83FF000E4D
:103530001B6E050E1A6E000E1D6E010E1C6E5CECED
:1035400016F0000E176EC2EF1AF01750206E216AA7
:103550002150000AD8B4AFEF1AF0A1EF1AF02050B2
:10356000000AD8B449EF1AF0010AD8B460EF1AF093
:10357000030AD8B477EF1AF0010AD8B48EEF1AF024
:10358000A1EF1AF01200B9EC1DF02D501A1809E144
:103590002E501B18D8B4CFEF1AF0D1EF1AF0D3EF9A
:1035A0001AF0B9EC1DF0B9EC1DF01AA0DAEF1AF020
:1035B000DCEF1AF0F7EF1AF0E6EF1AF0000E106EDB
:1035C000000E0F6E000E196EF7EF1AF019502B6EE9
:1035D0002C6A2C50000AD8B4F0EF1AF0F7EF1AF06A
:1035E0002B50010AD8B4DEEF1AF0F7EF1AF0B9EC5D
:1035F0001DF01AA6FEEF1AF000EF1BF017EF1BF0FC
:1036000006EF1BF056EC0BF017EF1BF019502B6E6A
:103610002C6A2C50000AD8B410EF1BF017EF1BF0E7
:103620002B50010AD8B402EF1BF017EF1BF0B9ECD6
:103630001DF01BA01EEF1BF020EF1BF03BEF1BF05B
:103640002AEF1BF0010E196E000E106E010E0F6EA8
:103650003BEF1BF019502B6E2C6A2C50000AD8B48B
:1036600034EF1BF03BEF1BF02B50000AD8B422EFD5
:103670001BF03BEF1BF0B9EC1DF01AAE42EF1BF054
:1036800044EF1BF05BEF1BF04AEF1BF00AEC03F07A
:103690005BEF1BF019502B6E2C6A2C50000AD8B42B
:1036A00054EF1BF05BEF1BF02B50010AD8B446EF30
:1036B0001BF05BEF1BF01200216E83CF20F0000E99
:1036C000956E000E1B6E220E1A6E000E1D6E000E01
:1036D0001C6E5CEC16F021C083FF000E1B6E210EE9
:1036E0001A6E000E1D6E010E1C6E5CEC16F0000EC4
:1036F0001B6E210E1A6E000E1D6E000E1C6E5CEC11
:1037000016F020C083FF020E2118D8B48AEF1BF0F8
:103710008CEF1BF094EF1BF02104D8A492EF1BF068
:1037200094EF1BF098EF1BF090EC1DF09AEF1BF05C
:103730009EEC1DF01200000E1B6E220E1A6E000E83
:103740001D6E000E1C6E35EC15F0000E1B6E210E6A
:103750001A6E000E1D6E000E1C6E35EC15F0000E7C
:10376000956E90EC1DF090EC1DF090EC1DF090EC3F
:103770001DF090EC1DF0380E5CEC1BF090EC1DF091
:1037800090EC1DF0380E5CEC1BF090EC1DF0380E48
:103790005CEC1BF0380E5CEC1BF0060E5CEC1BF0D6
:1037A0000C0E5CEC1BF0010E5CEC1BF01200000E2A
:1037B0001F6E000E1E6E1C501D10D8B4E2EF1BF0E1
:1037C000E4EF1BF00CEF1CF0010E206EECEF1BF091
:1037D000D8901C361D36202A1DAEF1EF1BF0F3EFFA
:1037E0001BF0E8EF1BF0D8901E361F361C501A5CF9
:1037F0001D501B58D8A0FFEF1BF001EF1CF006EF87
:103800001CF01C501A5E1D501B5A1E80D8901D3291
:103810001C32202EF3EF1BF01EC01AF01FC01BF04D
:103820001200236E010ECB241A6E1B6A000E1B229F
:1038300023C01CF01D6A7DEC1DF01AC024F01BC0D3
:1038400025F024C01AF025C01BF0000E1D6E190EC5
:103850001C6ED7EC1BF01AC024F01BC025F0FF0E25
:103860002416030E251624C021F025C022F0D8907E
:1038700022322132D890223221322150BB6E24C014
:1038800021F0030E21162138F00BBA121200236E1C
:10389000010ECB241A6E1B6A000E1B2223C01CF0E3
:1038A0001D6A7DEC1DF01AC024F01BC025F024C059
:1038B0001AF025C01BF0000E1D6E190E1C6ED7EC01
:1038C0001BF01AC024F01BC025F0FF0E2416030EB7
:1038D000251624C021F025C022F0D89022322132B2
:1038E000D890223221322150BE6E24C021F0030E26
:1038F00021162138F00BBD12120023502410D8B429
:1039000084EF1CF086EF1CF0AAEF1CF0010E256E70
:103910008EEF1CF0D89023362436252A24AE93EF60
:103920001CF095EF1CF08AEF1CF02350215C245012
:103930002258D8A09EEF1CF0A0EF1CF0A4EF1CF0C2
:103940002350215E2450225AD89024322332252E2F
:1039500095EF1CF021C021F022C022F01200000ED1
:103960001D6E000E1C6ED5EF1CF0000E1E6E280E94
:103970001E64BDEF1CF0BFEF1CF0C1EF1CF0D3EFD5
:103980001CF0000E1F6E020E1F64C9EF1CF0CBEF7F
:103990001CF0CDEF1CF0D0EF1CF01F2AC3EF1CF081
:1039A0001E2AB7EF1CF01C4A1D2A1A501C5C1B5023
:1039B0001D58D8A0DEEF1CF0E0EF1CF0B5EF1CF0B6
:1039C0001200276E2650D8A4E8EF1CF0EAEF1CF096
:1039D000ECEF1CF027C016F02604D8A4F2EF1CF080
:1039E000F4EF1CF0F6EF1CF027C015F0020E2618BD
:1039F000D8A4FDEF1CF0FFEF1CF001EF1DF027C075
:103A000014F0030E2618D8A408EF1DF00AEF1DF0DD
:103A10000CEF1DF027C013F01200000E1B6E020EFB
:103A20001A6E000E1D6E000E1C6E35EC15F0000EA9
:103A30001B6E030E1A6E000E1D6E000E1C6E35EC12
:103A400015F0000E1B6E040E1A6E000E1D6E000E99
:103A50001C6E35EC15F0000E1B6E050E1A6E000E76
:103A60001D6E000E1C6E35EC15F0000E956E1200EA
:103A7000206E83CF21F0000E956E000E1B6E220E7D
:103A80001A6E000E1D6E010E1C6E5CEC16F020C04E
:103A900083FF000E1B6E210E1A6E000E1D6E010EAE
:103AA0001C6E5CEC16F0000E1B6E210E1A6E000EE2
:103AB0001D6E000E1C6E5CEC16F021C083FF9EECA8
:103AC0001DF012007C0EF66E3B0EF76E000EF86EC7
:103AD00000EE31F010EE06F00900F5CFEEFFE550F4
:103AE000E150FAE100EE01F0190EEE6AE806FDE1A0
:103AF000000EF86E00016EEF13F01A501C02F3CFA7
:103B00001EF0F4CF1FF01A501D02F3501F261B5059
:103B10001C02F3501F261EC01AF01FC01BF012001B
:103B2000000E1B6E9EEC1DF01B2A310E1B649BEFDA
:103B30001DF09DEF1DF092EF1DF01200000E1A6EA9
:103B40001A2A180E1A64A7EF1DF0A9EF1DF0A0EFB6
:103B50001DF0120094929494030ECA12CA840C0EA3
:103B6000BD120C0EBA121200070E93160F0E95120C
:103B700012000DC01AF00EC01BF012002C1A01002A
:023B8000CC1067
:020000040020DA
:08000000FFFFFFFFFFFFFFFF00
:020000040030CA
:0E000000FF027100FF8380FF0FC00FE00F4072
:00000001FF
